:107C0000112404B714BE01FD07C003FD2DD18CB5AE
:107C10008F7A8CBD802FF0D185E08093810082E047
:107C20008093C00088E18093C10086E08093C20009
:107C300080E18093C4008EE0FBD0219A86E020E3AF
:107C40003CEF91E0309385002093840096BBB09B7D
:107C5000FECF199AA8958150A9F7EE24FF24AA24F3
:107C6000A394B5E0CB2EA1E1BA2EF3E0DF2ED2D063
:107C7000813461F4CFD0082FE7D0023829F10138E0
:107C800011F485E001C083E0BDD07FC0823411F4DF
:107C900084E103C0853419F485E0DED076C08535F3
:107CA00079F4B8D0E82EFF24B5D0082F10E0102FBB
:107CB00000270E291F29000F111FC6D0780165C0AB
:107CC000863521F484E0C8D080E0DECF843609F028
:107CD00040C0A0D09FD0082F9DD080E0E81680E75C
:107CE000F80618F4F701D7BEE895C0E0D1E092D0CD
:107CF00089930C17E1F7F0E0EF16F0E7FF0618F0B4
:107D0000F701D7BEE895A0D007B600FCFDCFA701CC
:107D1000A0E0B1E02C9130E011968C91119790E0A9
:107D2000982F8827822B932B1296FA010C01A7BE5D
:107D3000E89511244E5F5F4FF1E0A038BF0751F77F
:107D4000F701C7BEE89507B600FCFDCFB7BEE895C2
:107D50001CC0843761F45ED05DD0082F5BD074D036
:107D6000F70185917F014ED00150D1F70EC08537C4
:107D700039F46AD08EE146D085E944D08FE084CFD3
:107D8000813511F488E054D05FD080E13BD06FCFD3
:107D90008EBD0DB407FEFDCF8EB50895289885E001
:107DA000F7DF80E0F5DF289A817008951F93182F80
:107DB000662321F086E060E0F9DF289AEFDF882370
:107DC000E9F72898812FE4DF1F910895EF92FF9241
:107DD0000F931F937B018C0183E060E0E7DFC80114
:107DE000AA27BB27D5DFBB27A12F902F8F2DD0DF50
:107DF0008E2DCEDF80E0CCDF289A1F910F91FF906F
:107E0000EF900895982F8091C00085FFFCCF90934C
:107E1000C6000895199A8091C00087FFFCCF809119
:107E2000C00084FD01C0A8958091C600199A0895EC
:107E3000982F882319F484B7877F84BF88E18093C3
:107E40006000909360000895E5DF803219F088E0CB
:107E5000EFDFFFCF84E1D6CF1F93182FDBDF115068
:107E6000E9F7F2DF1F9108959F92AF92BF92CF92F0
:107E7000DF92EF92FF920F931F93CF93DF9380E0F7
:107E8000D7DF84B18D6284B9289A2A9A8CB580652F
:107E90008CBD28988FE97CDF80E07ADF289A8150BA
:107EA0008E3F08F09DC081E061E080DF80E070DF00
:107EB000289A60E070E080E090E088DF863409F086
:107EC0008FC061E070E080E090E080DF8C3409F0EA
:107ED00087C062E070E080E090E078DF883509F0EC
:107EE0007FC066E070E080E090E070DF8A3309F0E8
:107EF00077C069E070E080E090E068DF8A3309F0E5
:107F00006FC067E070E080E090E060DF082F68E01D
:107F100070E080E090E05ADF10E0F02EEE2490E078
:107F2000E82AF92AE0FC5CC0199AC0E0D0E0CC2431
:107F3000DD249924939443E0A42E35E0B32E30C081
:107F40002A96BE0180E090E041DF082F10E02196E4
:107F5000BE0180E090E02B9739DF90E0982F8827D2
:107F6000802B912BFE010C0197BEE89511242296DF
:107F7000CE018F779070892B19F0CE15DF0581F433
:107F8000F601A7BEE89507B600FCFDCFF601B7BE27
:107F9000E89507B600FCFDCF80E890E0C80ED91E3A
:107FA000CE15DF0508F4CCCF199881E187BFE8959D
:107FB000EAE0F0E0EE0EFF1EF1E0EF16F0E8FF065B
:107FC00010F482E501C088ED61E0F0DE80E0E0DEE3
:107FD00080E0DEDE80E0DCDE289A88E029DFFFCF6B
:107FE000DF91CF911F910F91FF90EF90DF90CF9095
:107FF000BF90AF909F900895282E80E019DFEE2764
:04800000FF270994B9
:027FFE0000057C
:0400000300007C007D
:00000001FF
